:020000040800F2
:10000000680600202902000865020008670200084F
:10001000690200086B0200086D0200080000000081
:100020000000000000000000000000006F02000857
:100030007102000800000000730200087502000849
:1000400077020008770200087702000877020008AC
:10005000770200087702000877020008770200089C
:10006000770200087702000877020008770200088C
:10007000770200087702000877020008770200087C
:10008000770200087702000877020008770200086C
:10009000770200087702000877020008770200085C
:1000A000770200087702000877020008770200084C
:1000B000770200087702000877020008770200083C
:1000C000770200087702000877020008770200082C
:1000D000770200087702000877020008770200081C
:1000E000770200087702000877020008770200080C
:1000F00077020008770200087702000877020008FC
:1001000077020008770200087702000877020008EB
:1001100077020008770200087702000877020008DB
:1001200077020008770200087702000877020008CB
:1001300077020008770200087702000877020008BB
:1001400077020008770200087702000877020008AB
:10015000770200087702000877020008770200089B
:10016000770200087702000877020008770200088B
:1001700077020008770200087702000800000000FC
:10018000770200087702000800F002F800F03CF85F
:100190000AA090E8000C82448344AAF10107DA45E2
:1001A00001D100F031F8AFF2090EBAE80F0013F0F8
:1001B000010F18BFFB1A43F0010318478407000022
:1001C000A4070000103A24BF78C878C1FAD85207B3
:1001D00024BF30C830C144BF04680C6070470000C1
:1001E0000023002400250026103A28BF78C1FBD840
:1001F000520728BF30C148BF0B6070471FB500F0E1
:1002000098FB1FBD10B510BD00F066F81146FFF752
:10021000F5FF00F023FB00F049F803B4FFF7F2FF0D
:1002200003BC00F053F8000016481749174B9942D9
:100230003CBF50F8042B41F8042BF8D314494FF07D
:1002400000028B4238BF43F8042BFAD3DFF8440096
:10025000016841F470010160BFF34F8FBFF36F8FEE
:100260000D480047FEE7FEE7FEE7FEE7FEE7FEE794
:10027000FEE7FEE7FEE7FEE708480949094A0A4BA0
:1002800070470000600900080000002008000020FE
:100290006806002088ED00E0890100086800002061
:1002A00068060020680200206802002010B504469D
:1002B000AFF300802046BDE81040FFF7AEBF7047A7
:1002C0007047704700487047080000200149182017
:1002D000ABBEFEE7260002007546FFF7F3FFAE4611
:1002E00005006946534620F00700854618B020B542
:1002F000FFF7C2FFBDE820404FF000064FF00007B7
:100300004FF000084FF0000B21F00701AC46ACE8BD
:10031000C009ACE8C009ACE8C009ACE8C0098D462A
:10032000704770474FF080414863496941F00101CF
:100330004FF08042516170472348C06C40F012007A
:100340002149C8646FF03000204908600846006801
:1003500040F0100008601D480830006820F03000B0
:100360001A49083108600846006840F0300008600B
:10037000081F006820F00400091F086013480C30B3
:10038000006820F0300011490C3108606FF44030F3
:100390000F4908600846006840F48030086008464D
:1003A000806820F4403088600846806840F440301F
:1003B00088600846406820F4807048600846C0683D
:1003C00020F44030C860704700100240000400482C
:1003D000001000482248C06C40F001002049C86469
:1003E0004FF09040006820F00F004FF090410860FF
:1003F0000846006840F0020008600846006A40F0C5
:10040000010008621648806D40F0010014498865BB
:100410006420010788620007406940F001004861DC
:100420000846806940F0680088610846806900F0ED
:10043000FC0088610846006840F0800008600846BB
:10044000006A40F00100086244F62060C8624FF480
:10045000C87048638006406940F0010048617047F9
:100460000010024070B50446034804FB00F528461E
:1004700000F090F970BD000040420F002B48C06CA6
:1004800040F002002949C8642948006820F00F00A4
:10049000274908600846006840F400500860244876
:1004A0002030006840F000702149203108601F486A
:1004B000806D40F004001D49886550201D4908608A
:1004C0001C481438006840F001001A4914390860CB
:1004D000081D006840F06800091D086008460068B3
:1004E00000F0FC00086013482838006840F08000E5
:1004F0001049283908600F480838006840F00100AA
:100500000C490839086044F620600A49091D086052
:100510004FF4FA6007490C31086006481438006847
:1005200040F0010003491439086070470010024090
:1005300000040048280800404FF08040006840F068
:1005400001004FF0804108607047000002480068D9
:100550000149086070470000000800405E490968D2
:1005600021F007015C4A11601146096841F002015F
:1005700011605A49096841F48071584A116000BFFE
:100580005649096801F480610029F9D010205349C7
:10059000496821F0F851514A51601146496841EAD1
:1005A000006151601146096821F08071116000BF3F
:1005B0004A49096801F00071B1F1007FF8D047495C
:1005C000C96821F00301454AD1601146C96841F06C
:1005D0000201D1601146C96821F4FE4141F4A051E5
:1005E000D1601146C96821F0700141F01001D1605D
:1005F0001146C96821F0C061D1601146C96841F057
:100600008071D1601146096841F08071116000BFAE
:100610003249096801F000710029F9D02F49896831
:1006200021F003012D4A91601146896841F00301D0
:10063000916000BF2949896801F00C010C29F9D1AA
:100640002649896821F0F001244A916011468968A1
:1006500021F4E06191601146896821F46051916054
:100660001146096821F08061116000BF1B490968CB
:1006700001F08061B1F1806FF8D01849096921F467
:10068000FE41164A11611146096941F4C0511161D8
:100690001146096941F4003111611146096941F4BB
:1006A000803111611146096841F08061116000BF1D
:1006B0000A49096801F080610029F9D007498831A9
:1006C000096821F44001054AC2F888101146096EF4
:1006D00041F40011116670470020024000100240F2
:1006E0001A48C06C40F008001849C86418480068EF
:1006F00020F47050164908600846006840F4205005
:10070000086013482030006840F0EE601049203146
:1007100008600F480830006840F470500C490831F8
:100720000860081D006820F47050091D0860084624
:10073000006840F4A05008600548001D006820F0E3
:1007400060000349091D0860704700000010024066
:10075000000C004800B50D48806D40F400300B4996
:1007600088650A488830006820F00C00C1F88800CD
:100770000846D0F8880040F00400C1F88800FFF770
:10078000AFFF034800F010F800BD00000010024069
:1007900000440040642242430723B2FBF3F100BF50
:1007A0004A1E111EFCD17047016821F00101016051
:1007B000016821F010210160016821F4004101600D
:1007C000416821F44051416042F28D01C1600168ED
:1007D00041F00C0101601E4988421BD1016841F0C3
:1007E00020010160016821F040010160016821F0F1
:1007F00010010160016821F080010160016821F4AD
:1008000080710160016821F040010160016821F000
:10081000010101600F49884209D1016A41F040019C
:1008200001620D49096841F0C0010B4A116001687D
:1008300041F00101016000BFC16901F4001100290C
:10084000FAD000BFC16901F480010029FAD07047D5
:10085000004C004000440040083801402DE9F84FAA
:100860004FF000094FF4C87BFFF778FEFFF772FFE7
:10087000FFF762FDFFF7AEFDFFF700FEFFF75CFE3E
:10088000FFF764FE0520FFF7EDFD4FF4FA60FFF778
:1008900049FD0520FFF7E6FD00253DE02148445DC8
:1008A00004F0010080B104F01F042646344640F2F3
:1008B0000B1016FB00F000F5C87A5046FFF732FD2A
:1008C0000520FFF7CFFD26E004F0010050B104F051
:1008D0001F042646761C144806FB00FA5046FFF714
:1008E00059FF18E004F0010040B104F01F0427464E
:1008F000A84608F10108012000900CE004F0010076
:1009000040B1B94502D10020009004E009F101098D
:10091000454600E002E06D1C032DBFD300BF002060
:1009200000F004B801000020A086010018BCBDE85A
:10093000E08F4FF04070E1EE100A704700000000B9
:10094000600900080000002008000000C401000841
:10095000680900080800002060060000E0010008A7
:08096000002325003C090008FA
:040000050800018965
:00000001FF
